:020000040000FA
:10000000900B002099140000CB140000E9010000BF
:10001000CF140000D1140000D31400000000000031
:10002000000000000000000000000000D5140000E7
:10003000D714000000000000D9140000DB140000F9
:10004000DD140000DD140000DD140000DD140000EC
:10005000DD140000DD140000DD140000DD140000DC
:10006000DD140000DD140000DD140000DD140000CC
:10007000DD140000DD140000DD140000DD140000BC
:10008000DD140000DD140000DD140000DD140000AC
:10009000DD140000DD140000DD140000DD1400009C
:1000A000DD140000DD140000DD140000DD1400008C
:1000B000DD140000DD140000DD140000DD1400007C
:1000C000DD140000DD140000DD140000DD1400006C
:1000D000DD140000DD14000005020000DD14000046
:1000E000DD140000DD140000DD140000DD1400004C
:1000F000DD140000DD140000DD140000DD1400003C
:10010000DD140000DD140000DD140000DD1400002B
:10011000DD140000DD140000DD140000DD1400001B
:10012000DD140000DD140000DD140000DD1400000B
:10013000DD140000DD140000DD140000DD140000FB
:1001400000F002F800F041F80AA090E8000C8244A8
:100150008344AAF10107DA4501D100F036F8AFF285
:10016000090EBAE80F0013F0010F18BFFB1A43F095
:1001700001031847D8160000F8160000103A24BFF3
:1001800078C878C1FAD8520724BF30C830C144BFFC
:1001900004680C607047000000230024002500263E
:1001A000103A28BF78C1FBD8520728BF30C148BFDA
:1001B0000B607047782901F0B781002070471FB5A8
:1001C00001F02AFB1FBD10B510BD01F0E7FA114682
:1001D000FFF7F5FF00F06FF901F005FB03B4FFF73F
:1001E000F2FF03BC01F00AFB04207146084202D072
:1001F000EFF3098001E0EFF308807146004A1047F1
:10020000270F000010B5CD48C468406900F0010018
:1002100018B1CA4800F05CFF06E0C948006818B190
:100220002046C7490968884710BD10B50446082C08
:100230000AD17C20C14988600846006820F03C0053
:1002400040F00800086055E0182C11D1BD48017835
:100250000078401CBB4A1070BB48405CB7498860BE
:100260000846006820F03C0040F00800086041E0CB
:10027000202C0BD1B14800F056F9B048006820F0AE
:10028000080040F02000AD49086033E0282C08D178
:10029000AA48006820F03C0040F02800A749086008
:1002A00028E0102C0AD17D20A44988600846006807
:1002B00020F03C0040F0080008601BE0402C08D112
:1002C0009E48006820F03C0040F008009B49086010
:1002D00010E0582C0ED1994880689C4908709748C6
:1002E000006820F03C0040F01800944908600120AC
:1002F0009749087010BD10B50446082C0AD17C201F
:100300008E4988600846006820F03C0040F00800F4
:10031000086046E0182C11D18A4801780078401C0A
:10032000884A10708B48405C8449886008460068A1
:1003300020F03C0040F00800086032E0202C0BD197
:100340007E4800F0F0F87D48006820F0080040F09A
:1003500020007A49086024E0282C22D179480078CE
:100360007D490978884211D0764801780078401C90
:10037000744A10707748405C70498860084600688D
:1003800020F03C0040F0080008600AE06B4800687C
:1003900020F03C0040F018006849086001206C49DA
:1003A000087010BD6B4A107051700022654B1A70B6
:1003B0000222694B1A700022654B1A70AFF2C90213
:1003C0005F4B1A605D4A126822F03C0242F0200244
:1003D0005A4B1A6000BF5E4A1278002AFBD00022F6
:1003E0005B4B1A70704770B503468024594D2C70D2
:1003F0002C466370002006E011F8015B841C554E0A
:100400003555441CE0B29042F6DB00244D4D2C7073
:10041000941C514D2C7000244D4D2C70AFF22914BA
:10042000474D2C60454C246824F03C0444F02004E3
:10043000424D2C6000BF464C2478002CFBD0002499
:10044000434D2C7070BD70B50346144600202FE05C
:1004500080253D4E357003F01F050544757000255D
:10046000384E357002253C4E35700025384E3570BB
:10047000AFF24925324E35600025384E35700125E2
:10048000374E35702D4D2D6825F03C0545F0200583
:100490002A4E356000BF2E4D2D78002DFBD02E4DFD
:1004A0002D7805442B4E755D01F8015B451CE8B2C3
:1004B000A042CDDB70BD00BF00BF00BF592029495D
:1004C000086016208905C1F800018820C1F80001E4
:1004D000C006D0F800010028F0D000BF00F096F967
:1004E00000BF00201F49086000BF47F23051134889
:1004F00000F0A8FD00233E221946104800F04DFEF2
:100500000E4800F005FE262000F01F020121914058
:100510004209920002F1E022C2F8001100BF00F08F
:10052000B7F800BFFEE7016841F01801016000BFA5
:10053000016801F010010029FAD17047000008405D
:100540000000002007000020A80000200400002078
:100550000A0000206800002006000020090000209A
:10056000080000200001004007E00A2100E000BF71
:100570000A00A1F10103D9B2F9D10200A0F10100F2
:10058000F3D1704710B5044603E04FF47A70FFF7DB
:10059000EBFF2000A4F10104F7D110BD70B50446B3
:1005A0000D4629462046FFF7FDFE70BD70B5044696
:1005B0000D461646324629462046FFF714FF70BD09
:1005C00070B504460D461646324629462046FFF7CA
:1005D0003AFF70BD70B50546002403E08548055517
:1005E000601CC4B2232CF9DB232282490020FFF7D0
:1005F000DDFF70BDF8B504460D460120A840C6B227
:100600007C48005D304300909DF800007949085512
:10061000012269462046FFF7C9FFF8BDF8B5044638
:100620000D460120A840C6B27248005DB04300905C
:100630009DF800006F490855012269462046FFF7E2
:10064000B5FFF8BD10B500218420FFF7A7FF10BD4E
:1006500010B503218420FFF7A1FF10BD10B50221C2
:100660008220FFF79BFF03218420FFF797FF0021E3
:100670008620FFF793FF00218820FFF78FFF3021AE
:100680008A20FFF78BFF10BD10B5FFF7E7FF10BD05
:10069000FFF7FAFF0020FFF79DFFAAE0FF20FFF71A
:1006A00099FF40F6B830FFF76DFF0020FFF792FF8B
:1006B00040F6B830FFF766FFAA20FFF78BFF232232
:1006C0004D490020FFF77CFF40F2DC50FFF75AFF56
:1006D0005520FFF77FFF232247490020FFF770FFD7
:1006E00040F2DC50FFF74EFF0020FFF773FFFFF7EB
:1006F000A9FF41F28830FFF745FFFFF7A9FF00206F
:10070000FFF768FF4FF4FA70FFF73CFF00203B490A
:1007100008702BE000203A4908701CE03949374A3C
:100720001278895C091FC8B235490978FFF762FF62
:100730004FF49670FFF726FF3249304A1278895CF1
:10074000091FC8B22E490978FFF768FF2C480078C6
:10075000401C2B4908702A4800782B4909788842A8
:10076000DCDB26480078401C2449087023480078C8
:100770002328CFDBFF20FFF72DFF4FF4FA70FFF7A0
:1007800001FF00201D4908702BE000201C49087063
:100790001CE01C49194A1278895C091FC8B2184923
:1007A0000978FFF73BFF4FF49670FFF7EBFE154912
:1007B000124A1278895C091FC8B211490978FFF7FB
:1007C00019FF0F480078401C0D4908700C4800784C
:1007D0000D4909788842DCDB08480078401C07494D
:1007E0000870064800782328CFDB4FF47A70FFF7B3
:1007F000C9FE53E7E80000200B0100202E00002076
:100800002F0000200B0000203000002010B5042035
:1008100000F092FA102000F012F90021072000F0F9
:100820001FF9012000F088FA012000F008F91848AB
:1008300000F002FA174800F077F8174800F074F853
:1008400000220221134800F048F8144800F00FFB82
:100850004FF08040406C20F070404FF08041486481
:100860000846406C40F0C04048640846806C20F464
:100870007F0088640846806C40F44C108864084807
:10088000006840F00C004FF04021C1F8E40010BDBA
:1008900000A24A04110010A2080000401100000844
:1008A000E4400040032101EA9071890001F1804198
:1008B000D1F8041200F01F0301229A409143032251
:1008C00002EA9072920002F18042C2F8041270476C
:1008D00000B5FE48FFF7E6FF00BDF0B50023002499
:1008E000C0F387256DB1C0F38145F94E06EB850451
:1008F0002568C0F38726C0F34417BE40B5431543AF
:100900002560C0F3426575B1C0F30175F04E103E2D
:1009100006EB85031D68C0F34266C0F30457BE4072
:10092000B5430D431D60F0BD032101EA90718900BC
:1009300001F18041D1F8041200F01F0301229A4016
:100940001143032202EA9072920002F18042C2F83F
:100950000412704770B504460D46164645F0100067
:1009600040EA4610DA4940310860D848FFF7DCFF1A
:1009700000222146D548FFF7B0FF70BDD54800687A
:1009800040F00400D3490860D1482038006840F4A2
:10099000C0708906C1F8000230BF7047CD480068BA
:1009A00020F00400CB490860C9482038006820F0D6
:1009B00080008906C1F8000230BF7047C448203863
:1009C000006800F0010008B1C34870470020FCE750
:1009D000BF482038006800F0020010B14FF400401A
:1009E00070470020FCE710B500F0BAFCB84810389A
:1009F000006800F0400018B1B8480068400810BD19
:100A0000B6480068FBE710B500F0AAFCB048103803
:100A1000006800F0800018B1B0480068400810BDC0
:100A2000AE480068FBE710B500F09AFCAB480068E0
:100A300010BD10B500F094FCA848006810BD014638
:100A4000A74A05E0101EA2F1010201DC0020704758
:100A50009F483030006808408842F3D10120F6E713
:100A600070B504460D469A483030006800F0100614
:100A70004FF08040D0F8000240F004009449203943
:100A800008601020FFF7DBFF91481038006820F065
:100A90000700C01D4FF08041C1F810028C4800686B
:100AA00020F00F002843C1F8200289481038006860
:100AB00020F00700204386491039086000F050FC00
:100AC00046B983482038006820F004004FF0804188
:100AD000C1F8000270BD7E482030006840F48030CC
:100AE0004FF08041C1F8400270472DE9F34F85B0C7
:100AF0000C46FFF7F0FF059888B975482038006864
:100B000040F001004FF08041C1F800020120FFF7E2
:100B100096FF4FF0000BDFF8C081022510E06C4813
:100B20002038006840F004004FF08041C1F8000216
:100B30001020FFF784FF4FF4002BDFF8A881042575
:100B40006948844204D84010844201D9002712E049
:100B50006648844205D84010844202D901276400C7
:100B600009E06348844205D86248844202D30327DF
:100B7000A40000E04EE04FF0FF3003900020019011
:100B800002902CE0B8FBF5FA5B48824526D95B4819
:100B9000824523D24FF002091BE00AFB09F65848B0
:100BA000864214D35048864211D8A64201D9301B40
:100BB00000E0A01B0490DDE90310884207D20498EE
:100BC00003900195CDF80890039800B905E009F16C
:100BD000010940F201208145DFD900BF6D1C212DA4
:100BE000D0D94BEA87310198801E41EA4021029812
:100BF000801E01433648203001600420FFF71FFFAC
:100C0000781C01994843B8FBF0F00299484307B0BB
:100C1000BDE8F08F059828B94CF22E002C49203100
:100C2000086003E037482A49203108600420FFF7B4
:100C300006FF00F0BAF8EAE770B504462448303001
:100C4000006800F010053048844200D904462F485F
:100C5000844200D204461E482038006840F0040058
:100C60004FF08041C1F800021020FFF7E8FE4FF07E
:100C70008040D0F8100240F007004FF08041C1F8EA
:100C800010020846D0F8200220F00F00C1F8200220
:100C90000F483030006800F0010028B161000020EA
:100CA000FFF723FF04460AE061004FF40020FFF73E
:100CB0001CFF044606483030006800F01005012192
:100CC0000220FFF7CDFE5DBB014821E00600C057C2
:100CD0002002004010ED00E0001BB7003C000020A7
:100CE00080F52000008051010065CD1D80B2E60E28
:100CF0004059730780F0FA02006A18000024F400DB
:100D000000C2EB0B32C4080000A24A0440787D0107
:100D10002038006820F004004FF08041C1F8000244
:100D2000600870BD3649096821F0380101434FF071
:100D30008042C2F8101270473149103909680143E6
:100D40004FF08042C2F8001270472D4910390968EF
:100D500081434FF08042C2F80012704700224FF0EA
:100D6000E0231A61042805D11A46126942F00402F0
:100D70001A6108E0224A126822F0380202434FF05A
:100D80008043C3F810224FF0E022516100224FF05F
:100D9000E0239A611A46126942F003021A61704711
:100DA00000204FF0E02108617047F8B5002615A03B
:100DB0000068009012483030016801F4A02008B1AA
:100DC0000020F8BD01F4002008B10F4A00E00F4AEE
:100DD00001F4003008B11046F3E7C1F381371DF884
:100DE0000740C1F30800831CC1F34420851C900810
:100DF000584315FB04F7B0FBF7F086003046E0E7F8
:100E0000100200400102020400805101001BB700E3
:100E10004FF08041496801434FF080425160704774
:100E20004FF080408069C0F3801070474FF08040E1
:100E3000406870472948006800F0010080F0010018
:100E400070474FF08040006870474FF080408068E6
:100E500040F001004FF08041886070474FF08040C3
:100E6000806840F002004FF0804188607047010EBA
:100E700001F180418968012282401143020E02F192
:100E800080429160010E01F180418A680121814018
:100E900022EA0101020E02F18042916070474FF098
:100EA0008042926942F001024FF080439A611A46F3
:100EB000926922F0080202439A611A46926922F06E
:100EC00006020A439A6170474FF08040806920F023
:100ED00001004FF080418861704700000001004030
:100EE00010B5044638A0216800F012FB39A06168F3
:100EF00000F00EFB3AA0A16800F00AFB3BA0E168FD
:100F000000F006FB3CA0216900F002FB3DA06169F6
:100F100000F0FEFA3EA0A16900F0FAFA3FA0E169F4
:100F200000F0F6FA10BD04463FA000F0F1FA2046AA
:100F3000FFF7D6FF00BFFEE700BF4149896901F412
:100F400000010029F9D13E4908600A2809D100BFF3
:100F50003B49896901F400010029F9D10D21384A82
:100F60001160704700B503461846FFF7E5FF00BD66
:100F700008E03348806900F4804018B930480068C0
:100F8000C0B27047F5E72E488069C0F380307047E3
:100F90002B488069C0F30070704710B504462046A6
:100FA000FFF7E0FF10BD30B504460D462046FFF7C1
:100FB000D9FF204630BD00B50146FFF7D9FF00BD7F
:100FC00001464FF0FF307047723020203D203078CE
:100FD00025780A00723120203D20307825780A00DB
:100FE000723220203D20307825780A00723320208C
:100FF0003D20307825780A00723132203D2030784B
:1010000025780A006C7220203D20307825780A006F
:10101000706320203D20307825780A00707372209C
:101020003D20307825780A00496E2048617264209E
:101030004661756C742048616E646C65720A0000CC
:10104000000007402DE9F04104460F46C2488442A3
:1010500003D1FFF7D8FC054602E0FFF7C4FC0546C4
:1010600005EB85004000B900B0FBF1F0401D0A21FE
:10107000B0FBF1F0461E2661206840F04000206081
:10108000701C8000B5FBF0F0BDE8F081B3498842E8
:101090000BD1C102C96841F48071C202D160C102A2
:1010A000C96821F48071D1600DE0AB4988420AD152
:1010B0008104C96841F400718204D1608104C96867
:1010C00021F40071D160016821F040010160704796
:1010D000416941F001014161704770B50446049DCA
:1010E000002009B140F020000AB140F010000BB11F
:1010F00040F008000DB140F00400266826F03C06E0
:101100000643266070BD016821F0800101607047D0
:10111000016841F080010160704770B505462E6995
:101120008D48854203D1FFF76EFC044602E0FFF7CD
:101130005AFC0446701C8000B4FBF0F070BD2DE931
:10114000F04105460F468448854203D1FFF75BFC1A
:10115000044602E0FFF747FC044604EB840040002D
:10116000B900B0FBF1F0401D0A21B0FBF1F0461EC2
:101170002E61701C8000B4FBF0F0BDE8F0810146E8
:101180000868C0F3C00070470146C8687047014650
:101190008868C0B270478160704710B599B1012965
:1011A00004D0022906D003290CD107E043EA420407
:1011B00084610CE043EA4204C46108E043EA42046B
:1011C000046204E000BF43EA4204446000BF00BF81
:1011D00010BD81B1012904D0022905D0032909D10C
:1011E00005E05300836209E05300C36206E0530048
:1011F000036303E000BF5300436200BF00BF7047BA
:1012000021B1426942F00202426103E0426922F0E8
:1012100002024261426942F0040242617047416940
:1012200021F0040141617047C16B41F00101C163CC
:101230007047C16B21F00101C16370470146C86C62
:101240007047C26C0A43C264704701657047426CC4
:1012500022F00C024264012904D1426C42F088025F
:10126000426403E0426C42F0840242647047002111
:1012700041647047426C22F48072426421B1426C36
:1012800042F48172426403E0426C42F00202426422
:1012900070470146486DC0B2704770B5456C45F463
:1012A000007545644FF47A75B2FBF5F401FB04F563
:1012B0004FF47A76B5FBF6F50126C6EB9503FF2BC6
:1012C00002D9FF25856500E0836570BD70B5456C6A
:1012D00025F400754564456925F0040545614FF422
:1012E0007A75B2FBF5F401FB04F50126C6EB9533E4
:1012F000FF2B01D8836570BD456945F00405456144
:1013000001FB04F50126C6EB1545EDB2856500BF6E
:10131000F1E770B5456C25F400754564456925F025
:10132000040545614FF47A75B2FBF5F401FB04F551
:101330000126C6EB9533FF2B01D8C36570BD456907
:1013400045F00405456101FB04F50126C6EB154592
:10135000EDB2C56500BFF1E700100840000008408D
:1013600070B500F057F8414908604148006800F046
:101370000705022D02D10846046802E03D4850F8F6
:1013800025403B481030006800F00F00461CB4FBBD
:10139000F6F03949086008460068384908444900B1
:1013A000B0FBF1F03649086070BD00BF00BF00BF60
:1013B00059203449086016208905C1F800018820A9
:1013C000C1F80001C006D0F800010028F0D000BF2D
:1013D0000846006840F64511B1EB103F05D188077B
:1013E000406940F080008907486121481038006852
:1013F00020F480504FF08041C1F8000200BF00206F
:101400002049086000BF2048006840F470001E4971
:1014100008607047F8B500261CA0006800901448CA
:101420003030016801F4A02008B10020F8BD01F4BB
:10143000002008B1164A00E0164A01F4003008B155
:101440001046F3E7C1F381371DF80740C1F30800E8
:10145000831CC1F34420851C9008584315FB04F7F6
:10146000B0FBF7F086003046E0E7000044000020C3
:1014700010020040480000203C00002020A107008E
:10148000400000200001004088ED00E0010202045D
:1014900000805101001BB70014484FF05901016052
:1014A0004FF0160101604FF088010160104A45F6C7
:1014B000A52111600F4A116821F4805111600021AB
:1014C00001600D4880470D480047FEE7FEE7FEE754
:1014D000FEE7FEE7FEE7FEE7FEE7FEE7FEE70000C9
:1014E00007480849084A094B7047000000010040BE
:1014F0002400004000020040AB1300004101000046
:1015000090010020900B0020900300209003002009
:101510000FB4044910B503AA029800F015F910BCE5
:101520005DF814FB3400002070B504460D462146DA
:101530001068AFF300802188090502D50F4A7A446C
:1015400002E00E4A7A440E32002104F1240305E041
:1015500000F00F060009965D5E54491C0028F7D183
:1015600020780023000704D5702D02D009B1022392
:1015700011322046BDE8704000F08CB8E002000057
:101580002DE9F0474FF0000A89460446C0F820A034
:101590002046E1688847002876D0252806D0D4E97F
:1015A00001219047206A401C2062F1E7E168204653
:1015B00000258847C4F81CA006460027C4F818A0D8
:1015C0002A2E09D0304600F020F938B304EB870802
:1015D000303EC8F8186019E059F8041B204604EBA7
:1015E00087029161E1688847012F064618D1E069BA
:1015F000002820DA25F020051DE0D8F8180000EBBF
:10160000800006EB40003038C8F818002046E1683A
:101610008847064600F0F9F80028EED1012F0AD0DD
:101620002E2E08D12046E16888477F1C0646022FEF
:1016300045F02005C4DBA069002803DA404245F0EC
:101640000105A061E80701D025F01005B6B1A6F1AB
:101650004100192802D8203645F400654A46314633
:10166000204625604D46FEF7A5FD58B1012806D05D
:10167000ED1D25F0070000F1080989E704E005F1F8
:10168000040985E730468AE7206ABDE8F08770479D
:10169000704770472DE9F0470D469946924604463B
:1016A00000F124080168880604D5E06921F01001E2
:1016B000216000E00120A84201DD471B00E0002777
:1016C000A1697A1902EB0900081AA0612078C00606
:1016D00002D42046AFF30080002608E0D4E90121BF
:1016E0001AF806009047206A401C761C20624E457E
:1016F000F4DB2078C0060AD52046AFF3008006E070
:10170000D4E9012130209047206A401C2062381E15
:10171000A7F10107F4DC07E0D4E9012118F805007E
:101720009047206A401C2062281EA5F10105F3DCC9
:101730002046AFF300802078000602D50220BDE8E5
:10174000F0870120FBE70000074B70B50D467B4496
:1017500000F011F804462846FFF732FC10B14FF0B4
:10176000FF3070BD204670BD55F8FFFF01694A1C6F
:1017700002610878704700B58FB0CDE901310021D2
:10178000059105497944CDE9031011466846FFF7F4
:10179000F7FE0FB000BD0000E5FFFFFF754600F04B
:1017A00029F8AE4605006946534620F007008546F5
:1017B00018B020B5FFF794FEBDE820404FF00006BA
:1017C0004FF000074FF000084FF0000B21F0070129
:1017D000AC46ACE8C009ACE8C009ACE8C009ACE86C
:1017E000C0098D4670470446AFF300802046FEF7DF
:1017F000F5FC000000487047300100200149182026
:10180000ABBEFEE726000200704730380A2801D23E
:1018100001207047002070474FF04070E1EE100A41
:1018200070473031323334353637383941424344EA
:101830004546403058003031323334353637383948
:101840006162636465664030780000006C180000D7
:1018500000000020680000007C010000D418000097
:1018600068000020280B0000980100000000000024
:10187000000000000000000405060708090A0B0C20
:101880000D0E0F101112131415161718191A1B1C10
:101890001D1E1F20212223242526000000000000F9
:1018A0000000000000000000001BB7000C0000005A
:1018B000001BB700001BB700008000000000000004
:1018C00010270000000000000000000000000000E1
:0418D0000080510142
:04000005000014994A
:00000001FF
